:100000000C9462000C948A000C948A000C948A0070
:100010000C948A000C948A000C948A000C948A0038
:100020000C948A000C948A000C948A000C948A0028
:100030000C948A000C948A000C948A000C948A0018
:100040000C944C100C948A000C948A000C948A0036
:100050000C948A000C948A000C948A000C948A00F8
:100060000C948A000C948A000000000024002700F1
:100070002A0000000000250028002B0000000000DE
:1000800023002600290004040404040404040202DA
:100090000202020203030303030301020408102007
:1000A0004080010204081020010204081020000012
:1000B0000007000201000003040600000000000029
:1000C0000000320D11241FBECFEFD4E0DEBFCDBF44
:1000D00011E0A0E0B1E0E8E9FAE202C005900D927B
:1000E000A23AB107D9F712E0A2EAB1E001C01D922D
:1000F000AF32B107E1F710E0C4ECD0E004C02297C2
:10010000FE010E944615C23CD107C9F70E948D0F1F
:100110000C944A150C940000FC018DE691E091834B
:1001200080836283089520E0FC0182818F3F09F083
:1001300021E0822F0895FC018281382F20E0C9013F
:100140008D5F9B4F0E940D030895CF93DF93EC01C9
:100150008A810E9412058A810E94E204EA81F0E00D
:10016000EE0FFF1FEE55FE4F11821082DF91CF91EF
:100170000895FC0182810E94CC030895CF93DF9300
:10018000EC010E949B00843161F0882351F08C3196
:1001900031F48A810E94CC0320E0009719F021E01D
:1001A00001C020E0822FDF91CF9108950F931F931C
:1001B000DF93CF930F92CDB7DEB78C01FC01828124
:1001C0000E94CC03009719F42FEF3FEF0BC0F8010A
:1001D0008281BE016F5F7F4F41E050E00E94800549
:1001E000298130E0C9010F90CF91DF911F910F91CC
:1001F0000895DF93CF930F92CDB7DEB76983FC01EB
:100200008281BE016F5F7F4F41E050E00E94900508
:100210000F90CF91DF910895FC0187E791E09183E2
:100220008083738362830895CF92DF92EF92FF926F
:100230000F931F93DF93CF93CDB7DEB727970FB6FA
:10024000F894DEBF0FBECDBF7C0100E010E06E0170
:100250000894C11CD11CC601602F0E948C00C601ED
:100260000E949B008823D1F4D70112964D915C9196
:100270001397802F61E020E00E943105802F0E94BB
:10028000F504F801EE0FFF1FEE55FE4FD701129651
:100290008D919C9113979183808305C00F5F1F4FB1
:1002A00004301105C1F627960FB6F894DEBF0FBED5
:1002B000CDBFCF91DF911F910F91FF90EF90DF9015
:1002C000CF9008958F929F92AF92BF92CF92DF927C
:1002D000EF92FF920F931F93DF93CF93CDB7DEB7CB
:1002E00027970FB6F894DEBF0FBECDBF5C0122EAA0
:1002F000C22E21E0D22EEE24FF24882499248E01E0
:100300000F5F1F4FC8016E2D0E948C00F6012081E7
:100310003181F5018281938128173907B1F4C80131
:100320000E949B00843121F491E0892E912C0DC014
:10033000C8010E949B008C3141F4C8010E94B900A1
:10034000009719F4C8010E94A5000894E11CF11C53
:1003500082E090E0C80ED91E94E0E916F10491F60F
:100360008114910419F4C5010E94140127960FB657
:10037000F894DEBF0FBECDBFCF91DF911F910F91DB
:10038000FF90EF90DF90CF90BF90AF909F908F90B5
:1003900008959F92AF92BF92CF92DF92EF92FF9219
:1003A0000F931F93DF93CF93CDB7DEB727970FB689
:1003B000F894DEBF0FBECDBF5C01962E0E94620195
:1003C00032EAC32E31E0D32E00E010E07E01089423
:1003D000E11CF11CC701602F0E948C00F6012081F6
:1003E0003181F501828193812817390749F4C701CA
:1003F0000E949B00873121F4C701692D0E94F900FA
:100400000F5F1F4F82E090E0C80ED91E0430110527
:1004100009F727960FB6F894DEBF0FBECDBFCF9178
:10042000DF911F910F91FF90EF90DF90CF90BF90E1
:10043000AF909F9008958F929F92AF92BF92CF926C
:10044000DF92EF92FF920F931F93DF93CF93CDB77D
:10045000DEB727970FB6F894DEBF0FBECDBF8C0175
:100460004B01CB010E94620142EAA42E41E0B42E6E
:10047000EE24FF246E010894C11CD11CC6016E2D10
:100480000E948C00F50120813181F40182819381E9
:1004900028173907D1F4C6010E949B008731A9F4BF
:1004A000C6010E94B900009781F0F8018DE691E045
:1004B000918380838B8182838C819D8194838383CC
:1004C0008E819F81968385830FC00894E11CF11C67
:1004D00082E090E0A80EB91E94E0E916F10471F6EE
:1004E000C8016FEF0E948C00C80127960FB6F894E0
:1004F000DEBF0FBECDBFCF91DF911F910F91FF9057
:10050000EF90DF90CF90BF90AF909F908F90089525
:10051000CF92DF92EF92FF920F931F93CF93DF93CF
:100520006B01EA0179010E9499030E949F0389E00F
:1005300090E0B60146E050E00E944E038FE090E06C
:10054000BE0144E050E00E944E0381E090E0B7011C
:1005500044E050E00E944E0385E090E0B80144E0A2
:1005600050E00E944E03DF91CF911F910F91FF90B9
:10057000EF90DF90CF9008950F931F93DF93CF9369
:1005800000D000D0CDB7DEB7EFEFE983EA83EB838D
:100590001C828E010F5F1F4F0E9488020F900F90E8
:1005A0000F900F90CF91DF911F910F910895DF93DE
:1005B000CF9300D000D0CDB7DEB7FA0120812983D8
:1005C00021812A8322812B8321E02C839E012F5FAE
:1005D0003F4F0E94BC020F900F900F900F90CF9151
:1005E000DF91089524B12C6224B924E025B920E5D7
:1005F0002CBD2A9820EF2EBD0DB407FEFDCF9EBD69
:100600000DB407FEFDCF8EBD0DB407FEFDCF6EBD50
:100610000DB407FEFDCF2A9A089524B12C6224B9A7
:1006200024E025B920E52CBD2A982FE02EBD0DB47D
:1006300007FEFDCF9EBD0DB407FEFDCF8EBD0DB4F0
:1006400007FEFDCF1EBC0DB407FEFDCF8EB52A9A66
:1006500008951F93CF93DF93EC010E940D03182F91
:10066000CE0101960E940D03312F20E0280F311D8D
:10067000C901DF91CF911F9108951F93CF93DF930D
:10068000EC01162F672F0E94F202CE010196612F16
:100690000E94F202DF91CF911F91089524B12C6244
:1006A00024B924E025B920E52CBD20EF19C02A98F3
:1006B0002EBD0DB407FEFDCF9EBD0DB407FEFDCFD0
:1006C0008EBD0DB407FEFDCFFB0130813EBD0DB4E4
:1006D00007FEFDCF01966F5F7F4F2A9A4150504031
:1006E0004115510521F70895FB0124B12C6224B96D
:1006F00024E025B920E52CBD2FE017C02A982EBD97
:100700000DB407FEFDCF9EBD0DB407FEFDCF8EBD1F
:100710000DB407FEFDCF1EBC0DB407FEFDCF019644
:100720003EB531932A9A415050404115510531F759
:10073000089580E090E860E80E94F20208958BE15D
:1007400090E065E50E94F2028AE190E065E50E9492
:10075000F2020895EF92FF920F931F93CF93DF93CE
:1007600090E0182F0027005E1B4FC0E0D0E0C801CA
:100770000E9429037C01009721F0C8010E942903EF
:10078000EC01CE15DF0599F7CE01DF91CF911F91D6
:100790000F91FF90EF900895EF92FF920F931F93A8
:1007A000CF93DF9390E0182F00270A5D1B4FC0E026
:1007B000D0E0C8010E9429037C01009721F0C80104
:1007C0000E942903EC01CE15DF0599F7CE01DF91D8
:1007D000CF911F910F91FF90EF900895CF92DF92EC
:1007E000EF92FF920F931F93CF93DF93EB01690179
:1007F0005770382F330F330F330F20E0E12C60E4B4
:10080000F62EE22AF32AC701840F951F9A012C0DB8
:100810003D1D68E02130360718F4282FA6010FC0CF
:1008200000E018E0041B150BBE01A8010E944E0356
:10083000C00FD11FA601401B510B2E2D9F2D822FC3
:10084000BE010E944E03DF91CF911F910F91FF9047
:10085000EF90DF90CF9008958F929F92BF92CF92AA
:10086000DF92EF92FF920F931F93CF93DF93B82EF7
:100870004B017A01C82FD0E02496DC2FCC278E01C3
:100880000C5D1F4FC8010E9429036C018B2DB40120
:10089000A60197010E94EE03B6016E0D7F1DC801EF
:1008A0000E943D032196CE0160E20E94F202CE0139
:1008B0000E940D038823D9F7DF91CF911F910F91EB
:1008C000FF90EF90DF90CF90BF909F908F90089512
:1008D000CF92DF92EF92FF920F931F93CF93DF930C
:1008E000EA0169017770382F330F330F330F20E09F
:1008F000E12CE0E6FE2EE22AF32AC701860F971FBD
:100900009B012C0D3D1D48E02130340718F4282FA1
:10091000A6010FC000E018E0061B170BBE01A801DE
:100920000E947403C00FD11FA601401B510B2E2D36
:100930009F2D822FBE010E947403DF91CF911F91E2
:100940000F91FF90EF90DF90CF9008958F929F923C
:10095000BF92CF92DF92EF92FF920F931F93CF93AC
:10096000DF93B82E4B017A01C82FD0E02496DC2FFC
:10097000CC278E01085D1F4FC8010E9429036C011E
:100980008B2DB601A40197010E946804B6016E0D7B
:100990007F1DC8010E943D032196CE0160E40E94A4
:1009A000F202CE010E940D038823D9F7DF91CF9187
:1009B0001F910F91FF90EF90DF90CF90BF909F908D
:1009C0008F900895CF93DF9390E0D82FCC27CF5FFF
:1009D000DB4FCE0168E00E94F202CE010E940D03BF
:1009E0008823D9F7DF91CF910895CF93DF93C82F54
:1009F000D0E02496DC2FCC27CE0103960E940D0375
:100A0000833111F080E00BC02196CE0162E00E949C
:100A1000F202CE010E940D038823D9F781E0DF9115
:100A2000CF9108950F931F93CF93DF93C82FD0E0FA
:100A300024961C2F00270F5F1F4FC80160E10E9402
:100A4000F202C8010E940D038823D9F79C2F882742
:100A500002966FEF0E94F202DF91CF911F910F91EA
:100A60000895CF92DF92EF92FF920F931F93DF933F
:100A7000CF9300D0CDB7DEB7182F6A01862F8150F3
:100A8000853010F080E031C0812F2A8369830E9475
:100A900012052A816981C114D10451F4C090AB01BF
:100AA000D090AC01C60101969093AC018093AB014C
:100AB000E12EFF2484E090E0E80EF91E1E2D0027B1
:100AC000622BC8010E94F202C8010496B6010E947E
:100AD0003D030F5F1F4FC80161E00E94F202C80191
:100AE0000E940D038823D9F781E00F900F90CF91DA
:100AF000DF911F910F91FF90EF90DF90CF900895BD
:100B0000EF92FF92CF93DF93EA014115510511F067
:100B10000E94A604CE01DF91CF91FF90EF9008953F
:100B20008F929F92AF92BF92CF92DF92EF92FF92FD
:100B30001F93CF93DF93182F5B01E42EE7017E0113
:100B4000F52EE70138E0C130D30710F0C0E0D8E05F
:100B5000E12EFF2484E090E0E80EF91EDE2CCC2488
:100B600023E030E0C20ED31E812F0E94AA034C0165
:100B7000C6010E940D03873129F08C3119F0C0E0C5
:100B8000D0E003C08C169D0678F3812FB501AE012D
:100B90000E942C04FE2CEE2482E090E0E80EF91E68
:100BA0000BC0C6010E940D03882331F4812F0E94DF
:100BB0001205C0E0D0E009C0C7010E940D0384FF08
:100BC000F0CFC70160E10E94F202CE01DF91CF9128
:100BD0001F91FF90EF90DF90CF90BF90AF909F90CC
:100BE0008F900895CF93DF93EC016A8770E0CB017B
:100BF0008A579F4FFC0184918B8766567F4FFB017C
:100C000064916C8790E0880F991F9C012E583F4F8C
:100C1000F901459154915E874D879C0124583F4FBF
:100C2000F90145915491588B4F8788599F4FFC018A
:100C3000259134913A8B298B8FEF8887198687E02D
:100C4000DE01A80FB11D1C92882311F08150F8CF4E
:100C5000DF91CF910895FC018FEF8087118697E097
:100C6000DF01A90FB11D1C92992311F09150F8CF0B
:100C70000895E82FF92F80E090E05CE80FC0308104
:100C800020E0432F482741708695411185272F5F2B
:100C9000283011F03695F5CF9F5F3196961778F38F
:100CA00008951F93CF93DF93EC01E989FA8980813E
:100CB0009C85892B8083ED85FE8590818C85809530
:100CC0008923808381E090E00E94CC10E989FA8931
:100CD00090818C8580958923808385E090E00E94B7
:100CE000CC10EF85F88910818C85182309F011E06C
:100CF00082E390E00E94CC10812FDF91CF911F9171
:100D00000895EF92FF920F931F93CF93DF937C018F
:100D1000C0E0D0E010E001E0C7010E94510681115F
:100D2000102B000F2196C830D105B1F7812FDF912C
:100D3000CF911F910F91FF90EF9008950F931F9304
:100D4000CF93DF93EC01E989FA8980819C85892B17
:100D50008083ED85FE8590818C85809589238083B5
:100D60006170062F10E0F801E158FE4F808190E09D
:100D70000E94CC10ED85FE8580819C85892B808327
:100D8000F801E358FE4F808190E00E94CC10DF9183
:100D9000CF911F910F910895CF92DF92EF92FF9222
:100DA0000F931F93DF93CF930F92CDB7DEB76C01F4
:100DB000162FEE24FF2401E060E0802F812309F04C
:100DC00061E0C60149830E949E06000F0894E11C61
:100DD000F11C498188E0E816F10471F7442351F4CD
:100DE000F601828560E00E94940FF601828560E042
:100DF0000E94B30F0F90CF91DF911F910F91FF9041
:100E0000EF90DF90CF9008956CEC40E00E94CC060C
:100E10000895EF92FF920F931F93CF93DF93EC010E
:100E20007B0165E540E00E94CC0600E010E0F701A0
:100E3000E00FF11FCE01608140E00E94CC060F5F01
:100E40001F4F0830110599F7DF91CF911F910F9136
:100E5000FF90EF9008951F93CF93DF93EC018A8565
:100E600060E00E94940F1DE7115010F410E028C0BC
:100E700082E090E00E94CC108A850E94FF0F0097CC
:100E800099F38A8560E00E94B30F8A8561E00E9431
:100E9000940F84EF91E00E94CC108A8560E00E945C
:100EA000940F81E490E00E94CC108A850E94FF0F8D
:100EB00010E0009709F411E08AEE91E00E94CC1056
:100EC000812FDF91CF911F9108958F929F92AF92C2
:100ED000BF92DF92EF92FF920F931F93DF93CF9316
:100EE0000F92CDB7DEB74C018B01FC0181858823C1
:100EF00009F06CC081E08187C4010E942B07882320
:100F000009F464C0C40160EF40E00E94CC06EE2406
:100F1000FF24DD24DA9441E0A42EB12CC4010E9408
:100F20005106682FC40169830E9451062E2D269513
:100F300026952695A70147705070F50102C0EE0F67
:100F4000FF1F4A95E2F79E2F6981662319F08823D7
:100F5000D1F03CC0882309F047C0F40140855527F3
:100F600047FD5095E416F50634F4E20FF11D80813B
:100F7000892341F403C0E416F50621F0DE2CF401C8
:100F8000118632C061E0F401E20FF11D8081892BEE
:100F90008083C4010E949E060894E11CF11CF0E4C9
:100FA000EF16F10409F0BACFF401D08680E090E0AA
:100FB000F801E80FF91FD401A80FB91F2C91208365
:100FC000019688309105A1F781E001C080E00F9083
:100FD000CF91DF911F910F91FF90EF90DF90BF9025
:100FE000AF909F908F900895F401E20FF11D892F2B
:100FF000809590818923CCCFFC018AEA98E0918B7F
:10100000808B75836483138210828FE190E09283DA
:10101000818308958F929F92AF92BF92CF92DF9279
:10102000EF92FF921F93CF93DF93FB01EA01998127
:1010300080E0688170E0682B792B8081823231F00A
:10104000883221F0803109F079C047C08C818F331C
:1010500029F1803420F48F3109F070C02EC08F3513
:1010600071F08F3709F06AC0882777FD8095982F37
:101070000E94CD1320E030E040E85DE30CC07595A0
:101080006795882777FD8095982F0E94CD1320E0E3
:1010900030E040E05EE30E947D1450C07595679596
:1010A00075956795882777FD8095982F0E94CD13B9
:1010B00020E030E040E85EE3EECF93E07595679581
:1010C0009A95E1F7882777FD8095982F0E94CD1398
:1010D00020E030E040E05FE3DECF1F81759567954B
:1010E000882777FD8095982F0E94CD1320E030E06F
:1010F00040E85EE30E94C9126B017C01612F70E041
:101100008E81681B7109882777FD8095982F0E9432
:10111000CD134B015C01612F70E080E090E00E94F4
:10112000CB139B01AC01C501B4010E9432139B019A
:10113000AC01C701B6010E94CA1200C0DF91CF9175
:101140001F91FF90EF90DF90CF90BF90AF909F9056
:101150008F9008950895CF93DF93EC018C819D814A
:101160000E942B078C819D810E9404078C819D81A8
:1011700064E448810E94CC0689819A818F3391056D
:1011800059F08F35910569F08F31910579F46EE54D
:1011900070E080E090E00EC06CEB70E080E090E0EA
:1011A00009C067E771E080E090E004C06EEE72E095
:1011B00080E090E00E94A210DF91CF9108950F93FC
:1011C0001F93CF93DF93EC018B018C819D810E9453
:1011D0002B078C819D81B8010E9409078C819D811C
:1011E00064EB40E00E94CC068C819D810E945106F8
:1011F000182F8C819D810E942B0780E0112309F418
:1012000081E0DF91CF911F910F910895EF92FF92AE
:101210000F931F93CF93DF93EC017B018A018C81A5
:101220009D810E942B078C819D81B7010E94090737
:101230008C819D816EEB40E00E94CC068C819D816B
:101240000E948106F80180838C819D810E94810625
:10125000F80181838C819D810E948106F80182833F
:101260008C819D810E948106F80183838C819D8100
:101270000E948106F80184838C819D810E948106F1
:10128000F80185838C819D810E948106F801868307
:101290008C819D810E948106F80187838C819D81CC
:1012A0000E948106F80180878C819D810E942B0716
:1012B000DF91CF911F910F91FF90EF900895CF9301
:1012C000DF93EA010E940609CE0168E00E94390618
:1012D00090E02885821709F491E0892FDF91CF9162
:1012E0000895CF92DF92EF92FF920F931F93DF93B7
:1012F000CF93CDB7DEB729970FB6F894DEBF0FBEF8
:10130000CDBF6C017B018E010F5F1F4FA8010E94B2
:101310005F09882329F460E070E08EEF92EC05C04D
:10132000C601B701A8010E940A0829960FB6F894D1
:10133000DEBF0FBECDBFCF91DF911F910F91FF9008
:10134000EF90DF90CF9008950E94710926E636E66F
:1013500046EE5FE30E947D1420E030E040E052E47E
:101360000E94CA120895DF93CF93CDB7DEB72997B5
:101370000FB6F894DEBF0FBECDBFAE014F5F5F4F1B
:101380000E945F0929960FB6F894DEBF0FBECDBF4D
:10139000CF91DF910895CF93DF93EB01CB0167E00D
:1013A0000E94390690E02F81821709F491E0892F7D
:1013B000DF91CF9108959F92AF92BF92CF92DF922B
:1013C000EF92FF920F931F93DF93CF93CDB7DEB7CA
:1013D00061970FB6F894DEBF0FBECDBF8C01FC0144
:1013E000848195810E942B067E010894E11CF11CEA
:1013F00069E0A62EB12CAC0EBD1E5FE7C52ED12C28
:10140000992493942CC0C801B7010E94CB0988236A
:1014100031F1F8018081882341F4C801B7010E94AD
:10142000DF08882311F0F8019082C801B701A501F7
:101430000E9406098981803121F4F801D282C1829B
:101440000AC08D8590E0F801218132812817390783
:1014500014F492838183F80183818F5F8383F80181
:1014600084819581B7010E946507882361F66196A2
:101470000FB6F894DEBF0FBECDBFCF91DF911F91A5
:101480000F91FF90EF90DF90CF90BF90AF909F9023
:101490000895FC01608341831282138214821582B5
:1014A0000895CF92DF92EF92FF920F931F93CF9305
:1014B000DF93EC01E62E8A819B81AC81BD81009790
:1014C000A105B10559F10E811F810350104089819A
:1014D00060E00E94B30FC8010E94CC10CC24DD2430
:1014E000FF24F3948F2D8E2119F0898161E002C0D1
:1014F000898160E00E94B30FC8010E94CC10FF0CEC
:101500000894C11CD11C88E0C816D10459F7898100
:1015100061E00E94B30FC8010E94CC10DF91CF910F
:101520001F910F91FF90EF90DF90CF9008952F9231
:101530003F924F925F926F927F928F929F92AF9263
:10154000BF92CF92DF92EF92FF920F931F93DF93A0
:10155000CF93CDB7DEB7A2970FB6F894DEBF0FBE1C
:10156000CDBF2C015A016B01411551056105710573
:1015700021F460E30E94510A4CC0EE24FF2487014D
:10158000622E7724882499241E010894211C311C82
:10159000C1018E0D9F1D9AA389A3C601B501A401A7
:1015A00093010E94F314E9A1FAA160830894E11C5D
:1015B000F11C011D111DC601B501A40193010E947A
:1015C000F314A22EB32EC42ED52EA114B104C1043F
:1015D000D104F1F6D801C7010197A109B109280E7C
:1015E000391E12C00894E108F10801091109F1013E
:1015F00060816A3010F4605D01C0695CC2010E94C4
:10160000510A089421083108E114F104010511057B
:1016100049F7A2960FB6F894DEBF0FBECDBFCF91AB
:10162000DF911F910F91FF90EF90DF90CF90BF90CF
:10163000AF909F908F907F906F905F904F903F9072
:101640002F900895EF92FF920F931F93CF93DF9304
:10165000EC017A018B0177FF0BC06DE20E94510A09
:1016600010950095F094E094E11CF11C011D111DF2
:10167000CE01B801A7012AE00E94970ADF91CF911D
:101680001F910F91FF90EF9008959B01A90166278C
:1016900057FD6095762F0E94220B08952115310584
:1016A00021F4642F0E94510A08952A30310519F45B
:1016B0000E94220B08950E94970A08950F931F938A
:1016C000CF93DF93EC018B0105C00F5F1F4FCE015D
:1016D0000E94510AF80160816623B9F7DF91CF912A
:1016E0001F910F910895CF93DF93EC019A01AB0105
:1016F0002A833B834C835D8360E472E48FE090E057
:101700000E9415153F832E83898161E00E94B30FEB
:101710008E819F810E94CC10DF91CF910895CF924E
:10172000DF92EF92FF920F931F93CF93DF93EC0121
:101730008B017A016E019D2D4EEF50E060E070E06C
:1017400020E030E00E944E0B6C857D85882777FD78
:101750008095982F0E94A2108A859B85A701481B1F
:10176000590B40585F4F081B190B035F1F4F000FA9
:10177000111F0C0F1D1FF80180819181480F591F07
:10178000662757FD6095762FCE0120E030E00E945D
:101790004E0B6C857D85882777FD8095982F0E945C
:1017A000A210DF91CF911F910F91FF90EF90DF90EA
:1017B000CF9008950F931F93CF93DF93EC0189018E
:1017C0000E948F0BCE01B8010E94450BDF91CF9193
:1017D0001F910F9108950F931F93CF93DF93EC0107
:1017E00089010E948F0BCE01B8010E945E0BDF9130
:1017F000CF911F910F910895EF92FF920F931F9336
:10180000CF93DF93EC018B018E899F898617970711
:1018100009F440C077FF02C000E010E00536110572
:1018200014F004E610E0CE014CE750E060E070E018
:1018300020E030E00E944E0B6C857D85882777FD87
:101840008095982F0E94A2109801220F331FC80183
:1018500045E0880F991F4A95E1F7821B930B64E6D8
:1018600070E00E94E01460587F4F9B01A901662739
:1018700057FD6095762FCE0120E030E00E944E0BA0
:101880006C857D85882777FD8095982F0E94A21012
:101890001F8B0E8BDF91CF911F910F91FF90EF90D7
:1018A0000895EF92FF92CF93DF93EC017E019F2D7D
:1018B0004EEF50E060E070E020E030E00E944E0B20
:1018C0006C857D85882777FD8095982F0E94A210D2
:1018D000CE014CE050E060E070E020E030E00E949B
:1018E0004E0B6C857D85882777FD8095982F0E940B
:1018F000A210DF91CF91FF90EF900895EF92FF92A9
:10190000CF93DF93EC017E019F2D4EEF50E060E01E
:1019100070E020E030E00E944E0B6C857D858827CA
:1019200077FD8095982F0E94A210CE0141E050E0F3
:1019300060E070E020E030E00E944E0B8C859D85D9
:10194000BC01660F771FE3E0880F991FEA95E1F766
:10195000680F791F882777FD8095982F0E94A21025
:10196000DF91CF91FF90EF900895FF920F931F9317
:10197000CF93DF93EC018B01F42E888561E00E9408
:10198000940F6C857D85882777FD8095982F0E9420
:10199000A210CE0140E855E260E070E00E94730BB7
:1019A0006C857D85882777FD8095982F0E94A210F1
:1019B000FF2019F0CE010E947E0CCE01B8010E94DA
:1019C000FC0BCE010E94510CDF91CF911F910F9122
:1019D000FF9008958F929F92AF92BF92CF92DF9225
:1019E000FF920F931F93DF93CF930F92CDB7DEB784
:1019F0004C01F62E6A0159014F2D79830E94490A44
:101A0000F401F086798171871387028784E090E082
:101A100095878487D786C686B18AA08A81E090E0C0
:101A2000938B828B958B848B84E690E0978B868B4F
:101A3000138E128E80E490E0958F848FB78EA68EE1
:101A4000C501805C9F4F91A380A30F90CF91DF9140
:101A50001F910F91FF90DF90CF90BF90AF909F901C
:101A60008F9008950F931F93CF93DF93CDEAD1E02A
:101A7000CE0164E00E94F20580EC91E0BE010E947C
:101A8000FC0782ED91E063E070E042E050E020E18D
:101A900030E001E010E00E94EA0C82E292E060E5B2
:101AA00070E00E940C01DF91CF911F910F9108957A
:101AB0000F931F9382ED91E00E947E0C82ED91E0E6
:101AC00061E070E041E050E020E031E00E94EB0B8B
:101AD00080EC91E066EF71E00E94B3098823A1F0E9
:101AE00080EC91E066EF71E00E94A4090E949A13D5
:101AF0008B019C0182ED91E061E070E045E050E0F7
:101B000098010E94DA0B0AC082ED91E061E070E07A
:101B100045E050E025E031E00E94EB0B82ED91E0E2
:101B200061E070E049E050E029E031E00E94EB0B19
:101B300080EC91E06EEF71E00E94B3098823A1F080
:101B400080EC91E06EEF71E00E94A4090E949A136C
:101B50008B019C0182ED91E061E070E04DE050E08E
:101B600098010E94DA0B0AC082ED91E061E070E01A
:101B70004DE050E025E031E00E94EB0B82ED91E07A
:101B800062E070E041E050E02EE031E00E94EB0BBB
:101B900080EC91E066E072E00E94B3098823A1F036
:101BA00080EC91E066E072E00E94A4090E949A1322
:101BB0008B019C0182ED91E062E070E045E050E035
:101BC00098010E94DA0B0AC082ED91E062E070E0B9
:101BD00045E050E025E031E00E94EB0B82ED91E022
:101BE00062E070E049E050E023E131E00E94EB0B5D
:101BF00080EC91E06EE072E00E94B3098823A1F0CE
:101C000080EC91E06EE072E00E94A4090E949A13B9
:101C10008B019C0182ED91E062E070E04DE050E0CC
:101C200098010E94DA0B0AC082ED91E062E070E058
:101C30004DE050E025E031E00E94EB0B1F910F9149
:101C40000895EF92FF920F931F93CF93DF938C0130
:101C5000C0ECD1E0CE010E94AB080E94580DC80133
:101C600068E171E00E945511CE0166EF71E00E94BB
:101C7000A409AB01BC01C8010E94C5128CE1E82E89
:101C800081E0F82EC801B7010E946A11C80163E221
:101C900071E00E945511CE016EEF71E00E94A4091F
:101CA000AB01BC01C8010E94C512C801B7010E9466
:101CB0006A11C80167E271E00E945511CE0166E029
:101CC00072E00E94A409AB01BC01C8010E94C512C8
:101CD000C801B7010E946A11C8016BE271E00E945D
:101CE0005511CE016EE072E00E94A409AB01BC0167
:101CF000C8010E94C512C801B7010E946A11C8013B
:101D00006FE271E00E945511CE0166E172E00E941F
:101D1000A409AB01BC01C8010E94C512C801B701EA
:101D20000E946A11DF91CF911F910F91FF90EF9068
:101D30000895FF920F931F93DF93CF93CDB7DEB734
:101D40002E970FB6F894DEBF0FBECDBF8E010F5F8A
:101D50001F4FC80162E272E00E941B02C8010E948C
:101D60009300882309F444C0FF24F39432C0C801CF
:101D70000E94B900009769F1C8010E94D6008A301C
:101D800029F5FF2019F4FF24F39423C0C80165E36B
:101D900071E00E946A11C80165E471E00E946A1155
:101DA000C8010E945D118DE691E0998788878B813B
:101DB0008A878C819D819C878B878E819F819E875E
:101DC0008D87CE0108960E94210E08C08D3009F043
:101DD000FF24C8010E94BE00882349F661E070E03C
:101DE00080E090E00E94A210CE0101960E94A50022
:101DF0002E960FB6F894DEBF0FBECDBFCF91DF9108
:101E00001F910F91FF900895CF92DF92EF92FF9272
:101E10000F931F93CF93DF93EC018B010E949410DB
:101E2000C880D980EA80FB809B01AC012C193D0958
:101E30004E095F0969017A0120E030E0C016D10641
:101E4000E206F30610F480E005C0688379838A8394
:101E50009B8381E0DF91CF911F910F91FF90EF90D5
:101E6000DF90CF9008950E94990E8EE192E060E19C
:101E700077E20E94040F882331F080EC91E00E9409
:101E8000AB080E94580D08958AEA91E06FE571E071
:101E900045E651E00E94D70282E292E00E941401DE
:101EA00080EC91E00E94DB0982ED91E064E670E055
:101EB00041E00E94B50CA6EFB1E0E9E9F1E088E06D
:101EC00001900D928150E1F7AEEFB1E0E1E9F1E070
:101ED00088E001900D928150E1F7A6E0B2E0E9E8D8
:101EE000F1E088E001900D928150E1F7AEE0B2E0C0
:101EF000E1E8F1E088E001900D928150E1F7E6E140
:101F0000F2E088E0DF011D928A95E9F780EC91E02C
:101F10000E94AB080E94580D08950E94D9100E949B
:101F2000440F0E94330FFDCF282F30E0C9018656A1
:101F30009F4FFC019491F901EA57FF4FE491EE2382
:101F400089F0F0E0EE0FFF1FE859FF4FA591B49123
:101F5000662329F48C91909589238C9308958C9114
:101F6000892B8C930895482F50E0CA0182559F4FCA
:101F7000FC0194919A0126563F4FF9012491FA01F0
:101F8000EA57FF4FE491EE23C9F1992331F19330E1
:101F900021F4909180009F7705C0943031F49091A6
:101FA00080009F7D9093800018C0913019F494B503
:101FB0009F7704C0923021F494B59F7D94BD0DC0ED
:101FC000963021F49091B0009F7705C0973029F4A6
:101FD0009091B0009F7D9093B000F0E0EE0FFF1F56
:101FE000EE58FF4FA591B491662329F48C9120956A
:101FF00082238C9308958C91822B8C930895282FA3
:1020000030E0C90182559F4FFC019491A9014656C9
:102010005F4FFA014491F901EA57FF4FE491EE2333
:1020200019F420E030E036C0992331F1933021F4E7
:10203000909180009F7705C0943031F4909180009A
:102040009F7D9093800018C0913019F494B59F77CC
:1020500004C0923021F494B59F7D94BD0DC096309C
:1020600021F49091B0009F7705C0973029F49091AA
:10207000B0009F7D9093B000F0E0EE0FFF1FE4589A
:10208000FF4FA591B4918C9120E030E0842311F0B2
:1020900021E030E0C90108951F920F920FB60F9210
:1020A00011242F933F938F939F93AF93BF9380916E
:1020B0002A0290912B02A0912C02B0912D02309116
:1020C0002E020196A11DB11D232F2D5F2D3720F06B
:1020D0002D570196A11DB11D20932E0280932A0237
:1020E00090932B02A0932C02B0932D028091260294
:1020F00090912702A0912802B09129020196A11D7A
:10210000B11D8093260290932702A0932802B093DA
:102110002902BF91AF919F918F913F912F910F9085
:102120000FBE0F901F9018958FB7F89420912A0238
:1021300030912B0240912C0250912D028FBFB9019A
:10214000CA010895EF92FF920F931F937B018C01B8
:102150008FB7F89420912A0230912B0240912C02E3
:1021600050912D028FBF6FB7F89480912A02909101
:102170002B02A0912C02B0912D026FBF821B930BFA
:10218000A40BB50BE816F9060A071B0760F71F91A9
:102190000F91FF90EF900895019751F0880F991FCC
:1021A000880F991F02972FB7F8940197F1F72FBF67
:1021B0000895789484B5826084BD84B5816084BDBF
:1021C00085B5826085BD85B5816085BDEEE6F0E0B0
:1021D000808181608083E1E8F0E08081826080839B
:1021E000808181608083E0E8F0E08081816080838D
:1021F000E1EBF0E0808184608083E0EBF0E08081BF
:1022000081608083EAE7F0E0808184608083808160
:102210008260808380818160808380818068808308
:102220001092C10008950F931F93CF93DF93EC0199
:102230008B0109C00F5F1F4FE881F9810190F08188
:10224000E02DCE010995F8016081662399F7DF91B1
:10225000CF911F910F910895EF92FF920F931F93CB
:10226000CF93DF93EC018B017A010DC0F8016191EE
:102270008F01E881F9810190F081E02DCE0109956F
:102280000894E108F108E114F10481F7DF91CF919E
:102290001F910F91FF90EF900895DC01ED91FC915B
:1022A0000190F081E02D09950895DC01ED91FC91FC
:1022B0000280F381E02D09950895CF93DF93EC011F
:1022C0006DE00E944D11CE016AE00E944D11DF9138
:1022D000CF910895CF93DF93EC010E945511CE0169
:1022E0000E945D11DF91CF9108952F923F924F92FE
:1022F0005F926F927F928F929F92AF92BF92CF9296
:10230000DF92EF92FF920F931F93DF93CF93CDB79E
:10231000DEB7A2970FB6F894DEBF0FBECDBF2C017B
:102320005A016B01411551056105710521F460E306
:102330000E944D114CC0EE24FF248701622E7724A9
:10234000882499241E010894211C311CC1018E0D82
:102350009F1D9AA389A3C601B501A40193010E9400
:10236000F314E9A1FAA160830894E11CF11C011D9A
:10237000111DC601B501A40193010E94F314A22E00
:10238000B32EC42ED52EA114B104C104D104F1F68C
:10239000D801C7010197A109B109280E391E12C041
:1023A0000894E108F10801091109F10160816A301E
:1023B00010F4605D01C0695CC2010E944D11089477
:1023C00021083108E114F1040105110549F7A2962D
:1023D0000FB6F894DEBF0FBECDBFCF91DF911F9136
:1023E0000F91FF90EF90DF90CF90BF90AF909F90B4
:1023F0008F907F906F905F904F903F902F900895B7
:102400002AE00E9475110895EF92FF920F931F9397
:10241000CF93DF93EC017A018B0177FF0BC06DE264
:102420000E944D1110950095F094E094E11CF11C70
:10243000011D111DCE01B801A7012AE00E947511EE
:10244000DF91CF911F910F91FF90EF9008958F92A0
:102450009F92AF92BF92CF92DF92EF92FF920F9333
:102460001F93CF93DF93EC016A017B01122FCB0105
:10247000BA0120E030E040E050E00E942E138823B3
:1024800044F4CE016DE20E944D11F7FAF094F7F892
:10249000F09400E050E040E030E02FE311C0DA01BA
:1024A000F9016B2F742F8F2F922F20E030E040E244
:1024B00051E40E943213562F472F382F292F0F5FD8
:1024C000011768F3C701B601DA01F9012B2F342F88
:1024D0004F2F5E2F0E94CA127B01082FA92E7F2D3D
:1024E0000E949F13B62ED72E882EC92ECE014B2DBB
:1024F0005D2D682D7C2D0E940012112329F0CE0144
:102500006DE571E00E9455116B2D7D2D882D9C2D60
:102510000E94CB139B01AC016E2D7F2D802F9A2D35
:102520000E94C91223C020E030E040E251E40E9442
:102530007D14F62EC72E082FE92E0E949A134B0108
:10254000AA2497FCA094BA2CCE01B501A4010E9444
:102550000412C501B4010E94CD139B01AC016F2D83
:102560007C2D802F9E2D0E94C91211501123D9F667
:10257000DF91CF911F910F91FF90EF90DF90CF905F
:10258000BF90AF909F908F90089522E00E942712F5
:1025900008955058BB27AA270ED075C166D130F0D8
:1025A0006BD120F031F49F3F11F41EF45BC10EF4A7
:1025B000E095E7FB51C1E92F77D180F3BA176207A5
:1025C00073078407950718F071F49EF58FC10EF418
:1025D000E0950B2EBA2FA02D0B01B90190010C0133
:1025E000CA01A0011124FF27591B99F0593F50F44B
:1025F000503E68F11A16F040A22F232F342F4427A3
:10260000585FF3CF469537952795A795F04053959A
:10261000C9F77EF41F16BA0B620B730B840BBAF06A
:102620009150A1F0FF0FBB1F661F771F881FC2F7D5
:102630000EC0BA0F621F731F841F48F487957795E9
:102640006795B795F7959E3F08F0B3CF9395880FA0
:1026500008F09927EE0F979587950895D9D008F43B
:1026600081E008950CD00FC107D140F0FED030F0CA
:1026700021F45F3F19F0F0C0511139C1F3C014D1FA
:1026800098F39923C9F35523B1F3951B550BBB2739
:10269000AA2762177307840738F09F5F5F4F220FE6
:1026A000331F441FAA1FA9F333D00E2E3AF0E0E8DF
:1026B00030D091505040E695001CCAF729D0FE2F2B
:1026C00027D0660F771F881FBB1F261737074807BD
:1026D000AB07B0E809F0BB0B802DBF01FF27935873
:1026E0005F4F2AF09E3F510568F0B6C000C15F3FC2
:1026F000ECF3983EDCF3869577956795B795F7955B
:102700009F5FC9F7880F911D9695879597F9089552
:10271000E1E0660F771F881FBB1F621773078407EE
:10272000BA0720F0621B730B840BBA0BEE1F88F7FD
:10273000E095089504D06894B111D9C00895BCD033
:1027400088F09F5790F0B92F9927B751A0F0D1F09A
:10275000660F771F881F991F1AF0BA95C9F712C024
:10276000B13081F0C3D0B1E00895C0C0672F782F99
:102770008827B85F39F0B93FCCF386957795679590
:10278000B395D9F73EF490958095709561957F4FFC
:102790008F4F9F4F0895E89409C097FB3EF49095A2
:1027A0008095709561957F4F8F4F9F4F9923A9F02A
:1027B000F92F96E9BB279395F695879577956795B9
:1027C000B795F111F8CFFAF4BB0F11F460FF1BC0FD
:1027D0006F5F7F4F8F4F9F4F16C0882311F096E990
:1027E00011C0772321F09EE8872F762F05C066233E
:1027F00071F096E8862F70E060E02AF09A95660FF7
:10280000771F881FDAF7880F9695879597F90895AF
:10281000990F0008550FAA0BE0E8FEEF16161706F1
:10282000E807F907C0F012161306E407F50798F059
:10283000621B730B840B950B39F40A2661F0232B72
:10284000242B252B21F408950A2609F4A140A695EE
:102850008FEF811D811D089597F99F6780E870E0D3
:1028600060E008959FEF80EC089500240A94161606
:10287000170618060906089500240A94121613066E
:10288000140605060895092E0394000C11F48823FC
:1028900052F0BB0F40F4BF2B11F460FF04C06F5F18
:1028A0007F4F8F4F9F4F089557FD9058440F551FEE
:1028B00059F05F3F71F04795880F97FB991F61F0C2
:1028C0009F3F79F087950895121613061406551F39
:1028D000F2CF4695F1DF08C0161617061806991FA5
:1028E000F1CF86957105610508940895E894BB279A
:1028F00066277727CB0197F908950BD0C4CFB5DFB2
:1029000028F0BADF18F0952309F0A6CFABCF112439
:10291000EECFCADFA0F3959FD1F3950F50E0551F7E
:10292000629FF001729FBB27F00DB11D639FAA2724
:10293000F00DB11DAA1F649F6627B00DA11D661F73
:10294000829F2227B00DA11D621F739FB00DA11D94
:10295000621F839FA00D611D221F749F3327A00D4E
:10296000611D231F849F600D211D822F762F6A2FEA
:1029700011249F5750408AF0E1F088234AF0EE0F6F
:10298000FF1FBB1F661F771F881F91505040A9F77C
:102990009E3F510570F060CFAACF5F3FECF3983EA9
:1029A000DCF3869577956795B795F795E7959F5FE3
:1029B000C1F7FE2B880F911D9695879597F908957D
:1029C00097FB092E07260AD077FD04D049D006D000
:1029D00000201AF4709561957F4F0895F6F7909551
:1029E00081959F4F0895A1E21A2EAA1BBB1BFD01E2
:1029F0000DC0AA1FBB1FEE1FFF1FA217B307E407DE
:102A0000F50720F0A21BB30BE40BF50B661F771F35
:102A1000881F991F1A9469F7609570958095909515
:102A20009B01AC01BD01CF01089597FB092E05263E
:102A30000ED057FD04D0D7DF0AD0001C38F45095D3
:102A40004095309521953F4F4F4F5F4F0895F6F7D2
:102A500090958095709561957F4F8F4F9F4F08950A
:102A6000AA1BBB1B51E107C0AA1FBB1FA617B707B4
:102A700010F0A61BB70B881F991F5A95A9F78095D0
:102A80009095BC01CD010895EE0FFF1F0590F491C4
:082A9000E02D0994F894FFCF3A
:102A980054313A20002D2D2D0054323A2000543361
:102AA8003A200054343A200054313A003C627220F3
:102AB8002F3E0054323A0054333A0054343A004816
:102AC8005641433A00485454502F312E3120323069
:102AD80030204F4B00436F6E74656E742D547970BF
:102AE800653A20746578742F68746D6C002E00DE6A
:102AF800ADBEEFFEEDC0A80AB100000000F900135A
:102B0800112C1100000000C90113112C11053737D1
:102B180005106537FA010800B1103827FA010800D6
:102B2800A910B422FA010800EC109F18FA01080055
:022B38009B0000
:00000001FF
